00240429HMAC                                                                    
0120240416AUTOGIRO                                            0069240009925256  
82202404220    000000000020790200000008000000099252560040106553200145           
82202404260    000000000021458700000004000000099252560040107191200141           
82202404220    000000000012095900000007500000099252560040106552200146           
82202404260    000000000021458700000004000000099252560040107191200141           
82202404260    000000000021458700000004000000099252560040107191200141           
82202404260    000000000021458700000004000000099252560040107191200141           
82202404260    000000000021458700000004000000099252560040107191200141           
82202404260    000000000021458700000004000000099252560040107191200141           
82202404260    000000000021458700000004000000099252560040107191200141           
82202404260    000000000021458700000004000000099252560040107191200141           
82202404260    000000000021458700000004000000099252560040107191200141           
82202404260    000000000021458700000004000000099252560040107191200141           
82202404260    000000000021458700000004000000099252560040107191200141           
82202404260    000000000021458700000004000000099252560040107191200141           
82202404260    000000000021458700000004000000099252560040107191200141           
82202404260    000000000021458700000004000000099252560040107191200141           
99240429FF365893D899291C3BF505FB3175E88031E7F491207BD2B0A8DF87DD54A3E4E8        